S00C00004D61696E2E7372656393
S113000054C0000079C50000F2C400006CC00000B8
S11300106AC0000068C0000066C0000064C0000040
S113002062C0000060C000000C942E085CC0000098
S11300305AC0000058C0000056C0000054C0000060
S113004052C0000050C000004EC000004CC0000070
S11300504AC000000BC4000046C0000044C00000B9
S113006042C0000040C000003EC000003CC0000090
S11300703AC0000038C0000021C3000034C00000B2
S113008032C0000030C000002EC0000005A84CCDD6
S1130090B2D44EB93836A9020C50B9918688083CBE
S11300A0A6AAAA2ABE000000803F11241FBECFEFDB
S11300B0D0E1DEBFCDBF17E0A0E0B1E0E6EFFCE1A8
S11300C000E00BBF02C007900D92AC30B107D9F726
S11300D02BE0ACE0B7E001C01D92AC39B207E1F708
S11300E003D00C94790E8CCF03D080E090E0089577
S11300F0CF93DF938DD7DDD560E070E0CB01C0E016
S1130100D0E013C0BE0180E090E00E946F092BEDA7
S11301103FE049E450E40E94FD0920E030E040E87B
S11301205CE30E94FD090E94600A20E030E040EF99
S113013051E40E94FD099B01AC0160E070E080E0A5
S113014092E4CFD70E944309862F40E06C2FA3D6B8
S11301502FEF80E792E0215080409040E1F700C00B
S113016000002196C038D10569F6DF91CF9108953A
S1130170E0EEF2E09AE080919B0085FFFCCF909343
S11301809C0091919111F7CFE8E0F3E09AE080911F
S11301909B0085FFFCCF90939C0091919111F7CF28
S11301A0E2E3F3E091E380919B0085FFFCCF909321
S11301B09C0091919111F7CFE3E5F3E092E38091F4
S11301C09B0085FFFCCF90939C0091919111F7CFF8
S11301D0E0E7F3E093E380919B0085FFFCCF9093ED
S11301E09C0091919111F7CFE6E9F3E094E38091BB
S11301F09B0085FFFCCF90939C0091919111F7CFC8
S1130200EAEBF3E095E380919B0085FFFCCF9093AC
S11302109C0091919111F7CFEDEDF3E096E380917D
S11302209B0085FFFCCF90939C0091919111F7CF97
S1130230E2EFF3E097E380919B0085FFFCCF90937E
S11302409C0091919111F7CFE9E0F4E098E380915B
S11302509B0085FFFCCF90939C0091919111F7CF67
S1130260E2E4F4E095E480919B0085FFFCCF909359
S11302709C0091919111F7CFE6E5F4E09AE080912A
S11302809B0085FFFCCF90939C0091919111F7CF37
S113029008958F929F92AF92BF92CF92DF92EF9286
S11302A0FF920F931F93CF93DF93CDB7DEB7C4565E
S11302B0D1090FB6F894DEBF0FBECDBF8C0145E067
S11302C050E063EB74E00E94880B892B09F05BC05B
S11302D0C80105960E94620B909322078093210720
S11302E08091210790912207892B09F098C049E851
S11302F054E060E082E074D5809121079091220758
S1130300892B09F48FC085E994E09F938F9389EB3F
S113031094E09F938F93CE0101969F938F930E94B5
S11303209E0B0F900F900F900F900F900F9099814C
S1130330992359F0FE01329680919B0085FFFCCFF2
S113034090939C0091919111F7CF2FEF87EA91E65A
S1130350215080409040E1F700C0000009DFCC59F3
S1130360DF4F0FB6F894DEBF0FBECDBFDF91CF9144
S11303701F910F91FF90EF90DF90CF90BF90AF90BF
S11303809F908F90089543E050E063EC74E0C801BF
S11303900E94880B892B09F5C80103960E94620B01
S11303A09093200780931F0780911F079091200747
S11303B0892BD9F547EB56E06CE082E011D58091AA
S11303C01F0790912007892B09F47CC085E994E0EC
S11303D09F938F9387EC94E09CCF47E050E06FECC1
S11303E074E0C8010E94880B892B11F142E050E0AF
S11303F065EF74E0C8010E94880B892B09F065C081
S1130400C80102960E94620B8F3F910511F008F01B
S1130410E4C081BF9F938F9388EF94E07ACF4DE738
S113042054E067CF8FE994E070CF4AEA54E0C4CF38
S1130430C80107960E94620B26E629832CEC2A83C6
S113044029E92B8323E32C83DC0197FD28C1109732
S113045009F4AFC026E660E070E040E050E08E01B1
S11304600F5F1F4F28BB24E630E0EFE9FFE0319730
S1130470F1F700C0000021503109B9F79A011816AC
S113048019069CF42F5F3F4F2370307837FD13C05B
S1130490A9016F5F7F4F6A177B0709F48DC098012C
S11304A0240F351FF9012081DDCF2D5F3F4F2370CD
S11304B0307837FFEDCF215031092C6F3F6F2F5F1C
S11304C03F4FE6CF8FE994E083CF45E050E069E405
S11304D075E0C8010E94880B892B09F088C0C80107
S11304E005960E94620B8C01853B910508F0B3C010
S11304F090931E0780931D0780911D0790911E07FE
S1130500853B910534F084EB90E090931E07809333
S11305101D0780911D0790911E0797FF04C010923C
S11305201E0710921D0726B537B5ADECBCEC0E9432
S1130530530B7C01F294E2948FE0E822EF24F8223A
S1130540EF2426B537B5C0901D07D0901E070E9432
S1130550530B969587959695879596958795BC01A7
S11305606E197F0980E090E0BAD64B015C01B601B8
S1130570DD0C880B990BB5D620E030E044E353E45E
S113058015D69B01AC01C501B40137D74B015C0101
S1130590B70180E090E0A3D69B01AC01C501B40192
S11305A0A1D571D67BBD6ABD1F930F938FE495E0EF
S11305B0B0CE8E010F5F1F4F9F938F9387ED94E012
S11305C09F938F931F930F930E949E0B0F900F90F6
S11305D00F900F900F900F90AACE87E3E2E1F5E021
S11305E0DE01119601900D928A95E1F7A0CE61EBA0
S11305F075E0C8010E947F0B892BD1F064EE75E091
S1130600C8010E947F0B892B81F581E090E09093D3
S1130610010180930001E7EEF5E091E480919B00F5
S113062085FFFCCF90939C0091919111F7CF97CEC9
S113063081E090E09093100780930F07E4EBF5E0DE
S113064090E580919B0085FFFCCF90939C00919155
S11306509111F7CF84CE83E4EEE6F5E0DE01119646
S113066001900D928A95E1F762CE65E076E0C801CB
S11306700E947F0B892BC1F482E090E090930101EA
S113068080930001E9E0F6E09CE480919B0085FF03
S1130690FCCF90939C0091919111F7CF60CEAA2743
S11306A0BB27A81BB90BD3CE84E2EFE2F6E0DE0150
S11306B0119601900D928A95E1F739CE1F920F920F
S11306C00FB60F9211240BB60F922F933F934F93B3
S11306D05F936F937F938F939F93AF93BF93EF93A6
S11306E0FF93CF93DF93CDB7DEB76497DEBFCDBF63
S11306F080919C008A3059F18D3049F19091230703
S1130700933650F4E091230791E09E0F90932307D2
S1130710F0E0EE5CF84F808364960FB6F894DEBF89
S11307200FBECDBFDF91CF91FF91EF91BF91AF91FC
S11307309F918F917F916F915F914F913F912F91F5
S11307400F900BBE0F900FBE0F901F901895E09165
S11307502307F0E0EE5CF84F108280910F07909130
S11307601007892B09F47CC063E576E082E397E007
S1130770C6D7892B09F460C068E576E082E397E088
S1130780BED7892B09F458C082E397E09BD7209108
S11307900D0730910E07F901EE0FFF1FE85DF84FCA
S11307A091838083C9010196E5E0F0E0BF0168D739
S11307B090930E0780930D07209128073091290705
S11307C080912A0790912B07280F391F80912C07BD
S11307D090912D07280F391F80912E0790912F0794
S11307E0280F391F8091300790913107820F931F92
S11307F0BF0146D77F936F938DE596E09F938F93C8
S1130800CE0101969F938F9399D799810F900F9062
S11308100F900F900F900F90992359F0FE0132968C
S113082080919B0085FFFCCF90939C009191911146
S1130830F7CF1092230770CF1092100710920F0772
S113084097DCEDE6F6E095E480919B0085FFFCCF14
S113085090939C0091919111F7CF109223075CCF54
S113086082E397E016DD1092230756CF1F920F9272
S11308700FB60F9211240BB60F920F931F932F9361
S11308803F934F935F936F937F938F939F93AF9314
S1130890BF93EF93FF93CF93DF93CDB7DEB7A897C2
S11308A0DEBFCDBF64B175B180910C07833009F40C
S11308B086C0843009F44CC08823F1F0369AA89697
S11308C00FB6F894DEBF0FBECDBFDF91CF91FF917D
S11308D0EF91BF91AF919F918F917F916F915F91B4
S11308E04F913F912F911F910F910F900BBE0F903D
S11308F00FBE0F901F90189580E090E0F0D420E098
S113090030E040E252E479D520E030E04FE753E4B0
S11309104DD4B4D47F936F938EED96E09F938F93D1
S11309208E010F5F1F4F1F930F9308D7A80160E03C
S113093084E056D287B1887F836087B983E080934F
S11309400C070F900F900F900F900F900F90B6CF51
S1130950CB01880F991F880F991F860F971F6FEF80
S113096073E07AD6709313076093120740911107CE
S11309702091120730911307809114079091150765
S11309801F924F933F932F939F938F938EEE96E0F6
S11309909F938F938E010F5F1F4F1F930F93CED69C
S11309A0A80160E085E01CD287B1887F87B91092E6
S11309B00C070FB6F894DEBF0FBECDBF7FCFCB01BF
S11309C0880F991F880F991F860F971F6FEF73E089
S11309D043D6660F771F709315076093140787B18A
S11309E0887F846087B984E080930C0767CF1F9267
S11309F00F920FB60F9211240BB60F920F931F9301
S1130A002F933F934F935F936F937F938F939F9312
S1130A10AF93BF93EF93FF93CF93DF93CDB7DEB73D
S1130A206097DEBFCDBF80911607811126C084B5C3
S1130A3090E090931C0780931B0781E08093160736
S1130A4060960FB6F894DEBF0FBECDBFDF91CF9195
S1130A50FF91EF91BF91AF919F918F917F916F9192
S1130A605F914F913F912F911F910F910F900BBE6A
S1130A700F900FBE0F901F90189584B590E090933F
S1130A801A07809319076091190770911A078091CA
S1130A901B0790911C07681B790B80E090E01FD422
S1130AA026E933E44BE05DE3A8D420E030E040E005
S1130AB05FE3A3D4E8D370931807609317071092E9
S1130AC0160780911707909118079F938F9380E0E2
S1130AD097E09F938F938E010F5F1F4F1F930F9388
S1130AE02DD6A80160E086E07BD10F900F900F9087
S1130AF00F900F900F90A4CF1F920F920FB60F92EA
S1130B0011240BB60F920F931F932F933F934F9380
S1130B105F936F937F938F939F93AF93BF93EF9361
S1130B20FF93CF93DF93CDB7DEB7A897DEBFCDBFDA
S1130B302FEF80E792E0215080409040E1F700C021
S1130B40000080B380958170809311074091110754
S1130B502091120730911307809114079091150783
S1130B601F924F933F932F939F938F938EEE96E014
S1130B709F938F938E010F5F1F4F1F930F93DED5AB
S1130B80A80160E084E02CD10FB6F894DEBF0FBE5C
S1130B90CDBFA8960FB6F894DEBF0FBECDBFDF91D0
S1130BA0CF91FF91EF91BF91AF919F918F917F91E1
S1130BB06F915F914F913F912F911F910F910F90E2
S1130BC00BBE0F900FBE0F901F90189516B817B854
S1130BD080E888B983EC86B90895982F9695969500
S1130BE096958770A1F0813009F457C0823009F4DA
S1130BF058C0833009F453C0843009F454C085309C
S1130C0009F453C0863009F452C080E801C081E081
S1130C1020E8929FF0011124E756F84FE60FF11DEA
S1130C202081822B808398549BBB1C981E9A1F9A08
S1130C301D9A1D9885E38A95F1F700006034B0F0A1
S1130C406BBB1C981E9A1F981D9A1D9825E32A9524
S1130C50F1F7000080818BBB1C9A1E9A1F981D9A85
S1130C601D9885E38A95F1F700000895605C6BBBDD
S1130C701C981E981F9A1D9A1D9825E32A95F1F732
S1130C80000080818BBB1C9A1E981F9A1D9A1D9888
S1130C9085E38A95F1F70000089582E0B9CF88E0F2
S1130CA0B7CF84E0B5CF80E1B3CF80E2B1CF80E4A9
S1130CB0AFCF98EB20E49BBB1C981E9A1F9A1D9AF9
S1130CC01D9835E33A95F1F700002BBB1C981E9A4A
S1130CD01F9A1D9A1D9885E38A95F1F7000080E418
S1130CE01BBA1C9A1E9A1F9A1D9A1D9835E33A95B1
S1130CF0F1F700008150A1F79F5F903CE1F6089561
S1130D008FE38BBB1C981E9A1F9A1D9A1D9885E32E
S1130D108A95F1F7000080EC8BBB1C981E9A1F9AF1
S1130D201D9A1D9885E38A95F1F7000088EB8BBB2B
S1130D301C981E9A1F9A1D9A1D9885E38A95F1F7AF
S1130D40000080E48BBB1C981E9A1F9A1D9A1D9864
S1130D5085E38A95F1F70000089590E08097FC01FF
S1130D60EE0FFF1FEE0FFF1FE80FF91FEE5FFE4FA0
S1130D7085E09091990B9A30F0F490819BBB1C9A7A
S1130D801E981F9A1D9A1D9895E39A95F1F70000F5
S1130D90815031968111EDCF8091990B1BBA1C9A29
S1130DA08A30A8F01E9A1F981D9A1D9895E39A956B
S1130DB0F1F70000089590819BBB1C9A1E9A1F981E
S1130DC01D9A1D9895E39A95F1F70000E1CF1E98BE
S1130DD01F9A1D9A1D9885E38A95F1F700000895DE
S1130DE01F93CF93DF93EA01809396076093990B47
S1130DF088548BBB1C981E9A1F9A1D9A1D9885E3D4
S1130E008A95F1F700008091990B8A30A0F190E067
S1130E100A97982F990F890F880F805C8BBB1C98B9
S1130E201E9A1F981D9A1D9885E38A95F1F7000074
S1130E3088818823E1F09091990B10E40AC08DDF3A
S1130E4021969091990B9F5F9093990B88818823A9
S1130E5071F09A30A1F71BBB1C981E9A1F981D9A1B
S1130E601D9885E38A95F1F700008881E8CFDF912A
S1130E70CF911F910895982F990F890F880F8C5B3C
S1130E808BBB1C981E981F9A1D9A1D9885E38A9502
S1130E90F1F70000CDCF3F924F925F926F927F9215
S1130EA08F929F92AF92BF92CF92DF92EF92FF9276
S1130EB00F931F93CF93DF93E82E462E542EA62E26
S1130EC0B12C842F90E06C01CC0CDD1CC80ED91E13
S1130ED0E601D7FC9BC0D595C795D595C795002746
S1130EE011270C1B1D0BE501C00FD11FD594C7940E
S1130EF0D594C79445018C0C9D1C8C169D060CF44E
S1130F003AC0559C300111240EC0C7FD08C06C2F97
S1130F1064DE8E2D8F19803410F4632D5EDE2196ED
S1130F208C169D0644F1CE018A199B09889F900175
S1130F30899F300D300D1124B301621B730B072EF2
S1130F40000C880B990BCDD1C5D220E030E040E0F5
S1130F505FE3C8D098D1F62E3C2E8E2D8F0D8034B1
S1130F60A0F28E2D8F198034D0F6C7FFD6CF2196EC
S1130F708C169D06C4F6F12CE801CE0DDF1DCE0CB7
S1130F80DF1CCC16DD0684F1559C80011124CE01B2
S1130F908E199F09889F9001899F300D300D11246F
S1130FA0B801621B730B072E000C880B990B99D1A7
S1130FB091D2BC2E2FE32C1798F020E030E040E0D3
S1130FC05FE390D060D1A62E642D6A0D67FD02C048
S1130FD08C2F03DE642D6A1967FD02C08B2DFDDDA5
S1130FE02196CC16DD069CF6DF91CF911F910F91CF
S1130FF0FF90EF90DF90CF90BF90AF909F908F9035
S11310007F906F905F904F903F900895239663CFA9
S1131010F8940ED006D01AD04FD0D8DD71DE789473
S113102008958AE080936A001ABE83E089BF089518
S11310301BBA8FEF8ABB88BB87BB12BA11BA13B82D
S113104082B91092650080936400089515BC8AE10A
S113105084BD83E085BD80E487BF08951F920F920D
S11310600FB60F9211242F933F938F939F938AE18E
S113107084BD8091260790912707019690932707B6
S1131080809326072091DD023091DE0282179307B8
S113109051F481E090E09093250780932407109207
S11310A02707109226079F918F913F912F910F90C0
S11310B00FBE0F901F90189510929B0086E08093AE
S11310C09D0088E980939A0087E690E090939B0BBB
S11310D080939A0B1092980080919A0B80939900B8
S11310E008955058BB27AA270ED04DC13ED130F0E9
S11310F043D120F031F49F3F11F41EF433C10EF4B8
S1131100E095E7FB29C1E92F4FD180F3BA176207B5
S113111073078407950718F071F49EF567C10EF400
S1131120E0950B2EBA2FA02D0B01B90190010C01F3
S1131130CA01A0011124FF27591B99F0593F50F40B
S1131140503E68F11A16F040A22F232F342F442763
S1131150585FF3CF469537952795A795F04053955B
S1131160C9F77EF41F16BA0B620B730B840BBAF02B
S11311709150A1F0FF0FBB1F661F771F881FC2F796
S11311800EC0BA0F621F731F841F48F487957795AA
S11311906795B795F7959E3F08F0B3CF9395880F61
S11311A008F09927EE0F9795879508950CD0EBC01A
S11311B0E3D040F0DAD030F021F45F3F19F0CCC036
S11311C0511115C1CFC0F0D098F39923C9F3552319
S11311D0B1F3951B550BBB27AA2762177307840726
S11311E038F09F5F5F4F220F331F441FAA1FA9F3DC
S11311F033D00E2E3AF0E0E830D091505040E695CE
S1131200001CCAF729D0FE2F27D0660F771F881F2E
S1131210BB1F261737074807AB07B0E809F0BB0B1D
S1131220802DBF01FF2793585F4F2AF09E3F510541
S113123068F092C0DCC05F3FECF3983EDCF3869527
S113124077956795B795F7959F5FC9F7880F911DB7
S11312509695879597F90895E1E0660F771F881FA3
S1131260BB1F621773078407BA0720F0621B730B56
S1131270840BBA0BEE1F88F7E095089504D06894A8
S1131280B111B5C0089598D088F09F5790F0B92F48
S11312909927B751A0F0D1F0660F771F881F991FC7
S11312A01AF0BA95C9F712C0B13081F09FD0B1E0FD
S11312B008959CC0672F782F8827B85F39F0B93F0D
S11312C0CCF3869577956795B395D9F73EF49095C9
S11312D08095709561957F4F8F4F9F4F0895E89447
S11312E009C097FB3EF490958095709561957F4F6A
S11312F08F4F9F4F9923A9F0F92F96E9BB27939518
S1131300F695879577956795B795F111F8CFFAF427
S1131310BB0F11F460FF1BC06F5F7F4F8F4F9F4F58
S113132016C0882311F096E911C0772321F09EE8B6
S1131330872F762F05C0662371F096E8862F70E01C
S113134060E02AF09A95660F771F881FDAF7880FF6
S11313509695879597F9089597F99F6780E870E0C7
S113136060E008959FEF80EC089500240A94161617
S1131370170618060906089500240A94121613067F
S1131380140605060895092E0394000C11F488230D
S113139052F0BB0F40F4BF2B11F460FF04C06F5F29
S11313A07F4F8F4F9F4F089557FD9058440F551FFF
S11313B059F05F3F71F04795880F97FB991F61F0D3
S11313C09F3F79F087950895121613061406551F4A
S11313D0F2CF4695F1DF08C0161617061806991FB6
S11313E0F1CF86957105610508940895E894BB27AB
S11313F066277727CB0197F908950BD0C4CFB5DFC3
S113140028F0BADF18F0952309F0A6CFABCF11244A
S1131410EECFCADFA0F3959FD1F3950F50E0551F8F
S1131420629FF001729FBB27F00DB11D639FAA2735
S1131430F00DB11DAA1F649F6627B00DA11D661F84
S1131440829F2227B00DA11D621F739FB00DA11DA5
S1131450621F839FA00D611D221F749F3327A00D5F
S1131460611D231F849F600D211D822F762F6A2FFB
S113147011249F5750408AF0E1F088234AF0EE0F80
S1131480FF1FBB1F661F771F881F91505040A9F78D
S11314909E3F510570F060CFAACF5F3FECF3983EBA
S11314A0DCF3869577956795B795F795E7959F5FF4
S11314B0C1F7FE2B880F911D9695879597F908958E
S11314C09F935CD00F9007FCEE5F7FC011F40EF485
S11314D049CF3EC071DFD0F39923D9F3CEF39F57A0
S11314E0550B87FF43D00024A0E640EA90018058C2
S11314F05695979528F4805C660F771F881F20F017
S113150026173707480730F4621B730B840B202916
S113151031294A2BA69517940794202531254A276B
S113152058F7660F771F881F20F0261737074807DC
S113153030F4620B730B840B200D311D411DA095FB
S113154081F7B901842F9158880F9695879508954E
S11315509F3F31F0915020F4879577956795B79523
S1131560880F911D9695879597F90895915050404D
S1131570660F771F881FD2F70895F4CE1DDFE8F3B6
S1131580E894E0E0BB279F57F0F02AED3FE049ECF8
S113159006C0EE0FBB0F661F771F881F28F0B23AF4
S11315A062077307840728F0B25A620B730B840B2B
S11315B0E3959A9572F7803830F49A95BB0F661FBD
S11315C0771F881FD2F79048C5CFEF93E0FF06C07E
S11315D0A2EA2AED3FE049EC5FEB95DDD4DE0F9003
S11315E0039401FC9058ECE8F0E000C09F938F93C3
S11315F07F936F93FF93EF939B01AC01FEDEEF911A
S1131600FF9105D02F913F914F915F91F6CEDF93DB
S1131610CF931F930F93FF92EF92DF927B018C0184
S1131620689405C0DA2EEF01F4DEFE01E894A5917A
S11316302591359145915591AEF3EF0164DDFE019D
S11316409701A801DA9479F7DF90EF90FF900F915A
S11316501F91CF91DF910895AA1BBB1B51E107C0D5
S1131660AA1FBB1FA617B70710F0A61BB70B881F2E
S1131670991F5A95A9F780959095BC01CD010895BD
S113168097FB072E16F4009406D077FD08D0E4DF0C
S113169007FC05D03EF4909581959F4F0895709571
S11316A061957F4F0895A29FB001B39FC001A39F8E
S11316B0700D811D1124911DB29F700D811D112487
S11316C0911D0895FC0188279927E89421912032DF
S11316D0E9F3293010F02E30C8F32B3239F02D32D3
S11316E031F4689403C022D0820F911D21912053BC
S11316F02A30C8F31EF4909581959F4F0895FB01FD
S1131700DC018D91019080190110D9F3990B089592
S1131710FB01DC014150504030F08D910190801963
S113172019F40020B9F7881B990B08957AE0979F64
S1131730902D879F802D910D112408950F931F9351
S1131740CF93DF93CDB7DEB72E970FB6F894DEBFF5
S11317500FBECDBF0D891E8986E08C831A83098351
S11317608FEF9FE79E838D83AE01475E5F4F6F8946
S1131770788DCE01019610D0EF81F885E00FF11F2E
S113178010822E960FB6F894DEBF0FBECDBFDF9148
S1131790CF911F910F9108952F923F924F925F9294
S11317A06F927F928F929F92AF92BF92CF92DF926D
S11317B0EF92FF920F931F93CF93DF93CDB7DEB7D2
S11317C02B970FB6F894DEBF0FBECDBF6C017B0123
S11317D08A01FC0117821682838181FFBFC1CE0179
S11317E001963C01F6019381F70193FD859193FFE6
S11317F081917F01882309F4ADC1853239F493FDC9
S1131800859193FF81917F01853221F4B60190E0A7
S1131810D6D1E8CF912C212C312CFFE1F315D8F04F
S11318208B3279F038F4803279F08332A1F4232DAD
S113183020611DC08D3261F0803369F4232D216055
S113184016C0832D8260382EE32DE4603E2E2AC01C
S1131850F32DF8601DC037FC2DC020ED280F2A3071
S113186040F08E32B9F436FC75C1232D2064322E3B
S113187019C036FE06C08AE0989E200D1124922ECF
S113188011C0EAE02E9E200D1124222EF32DF062C9
S11318903F2E08C08C3621F4832D8068382E02C078
S11318A0883641F4F70193FD859193FF81917F017F
S11318B08111B3CF982F9F7D9554933028F40C5FFA
S11318C01F4F9FE399830DC0833631F0833771F046
S11318D0833509F055C020C0F801808189830E5FEB
S11318E01F4F88248394912C530112C02801F2E0E5
S11318F04F0E511CF801A080B18036FE03C0692D43
S113190070E002C06FEF7FEFC5014ED14C01820140
S1131910F32DFF773F2E15C0280122E0420E511C03
S1131920F801A080B18036FE03C0692D70E002C0CA
S11319306FEF7FEFC5012DD14C01F32DF0683F2EE1
S1131940820133FC19C0822D90E088169906A0F418
S1131950B60180E290E033D12A94F5CFF50137FC4B
S1131960859137FE81915F01B60190E028D1211065
S11319702A9421E0821A91088114910479F7E1C034
S1131980843611F0893639F5F80137FE07C06081D5
S11319907181828193810C5F1F4F08C060817181C6
S11319A0072E000C880B990B0E5F1F4FF32DFF764B
S11319B03F2E97FF09C090958095709561957F4F54
S11319C08F4F9F4FF0683F2E2AE030E0A30133D1C0
S11319D0882E861844C0853731F4232D2F7EB22EED
S11319E02AE030E025C0932D997FB92E8F36C1F0BF
S11319F018F4883579F0AEC0803719F0883721F0B3
S1131A00A9C0E92FE061BE2EB4FE0DC0FB2DF46029
S1131A10BF2E09C034FE0AC0292F2660B22E06C08C
S1131A2028E030E005C020E130E002C020E132E0EF
S1131A30F801B7FE07C060817181828193810C5FD8
S1131A401F4F06C06081718180E090E00E5F1F4FE0
S1131A50A301F1D0882E8618FB2DFF773F2E36FE8A
S1131A600DC0232D2E7FA22E891458F434FE0BC0F2
S1131A7032FC09C0832D8E7EA82E05C0B82CA32C61
S1131A8003C0B82C01C0B92CA4FE0FC0FE01E80DA0
S1131A90F11D8081803321F49A2D997EA92E09C0ED
S1131AA0A2FE06C0B394B39404C08A2D867809F0CC
S1131AB0B394A3FC10C0A0FE06C0B21480F4280C9A
S1131AC0922C9B180DC0B21458F4B60180E290E039
S1131AD076D0B394F8CFB21418F42B1802C0982C13
S1131AE0212CA4FE0FC0B60180E390E068D0A2FED2
S1131AF016C0A1FC03C088E790E002C088E590E02E
S1131B00B6010CC08A2D867851F0A1FE02C08BE28A
S1131B1001C080E2A7FC8DE2B60190E050D08914A8
S1131B2030F4B60180E390E04AD09A94F8CF8A94D6
S1131B30F301E80DF11D8081B60190E040D08110E1
S1131B40F6CF222009F44ECEB60180E290E037D0E1
S1131B502A94F7CFF6018681978102C08FEF9FEF19
S1131B602B960FB6F894DEBF0FBECDBFDF91CF9199
S1131B701F910F91FF90EF90DF90CF90BF90AF90A7
S1131B809F908F907F906F905F904F903F902F9099
S1131B900895FC010590615070400110D8F78095BC
S1131BA090958E0F9F1F0895FC0161507040019025
S1131BB00110D8F7809590958E0F9F1F08950F936D
S1131BC01F93CF93DF93FB01238121FD03C08FEF8C
S1131BD09FEF2CC022FF16C0468157812481358196
S1131BE04217530744F4A081B1819D012F5F3F4FF9
S1131BF0318320838C93268137812F5F3F4F378336
S1131C00268314C08B01EC01FB010084F185E02DD7
S1131C100995892BE1F6D80116968D919C91179719
S1131C20019617969C938E931697CE01DF91CF91D0
S1131C301F910F910895FA01AA27283051F12031FC
S1131C4081F1E8946F936E7F6E5F7F4F8F4F9F4F4C
S1131C50AF4FB1E03ED0B4E03CD0670F781F891F8E
S1131C609A1FA11D680F791F8A1F911DA11D6A0F5C
S1131C70711D811D911DA11D20D009F468943F910F
S1131C802AE0269F11243019305D3193DEF6CF010E
S1131C900895462F4770405D4193B3E00FD0C9F7D4
S1131CA0F6CF462F4F70405D4A3318F0495D31FD41
S1131CB04052419302D0A9F7EACFB4E0A695979594
S1131CC0879577956795BA95C9F70097610571056A
S1131CD008959B01AC010A2E0694579547953795B4
S1131CE02795BA95C9F7620F731F841F951FA01D0E
S1091CF00895F894FFCFF3
S1131CF60100000000000000004F0000000700077C
S1131D0600147F147F14242A7F2A12231308646282
S1131D1636495522500005030000001C22410000EC
S1131D2641221C0014083E081408083E0808005006
S1131D363000000808080808006060000020100849
S1131D4604023E5149453E00427F400042615149EA
S1131D56462141454B311814127F10274545453914
S1131D663C4A494930017109050336494949360651
S1131D764949291E0036360000005636000008146C
S1131D8622410014141414140041221408020151AF
S1131D960906324979413E7E1111117E7F4949492E
S1131DA6363E414141227F4141221C7F49494941F6
S1131DB67F090909013E4149497A7F0808087F00DD
S1131DC6417F41002040413F017F081422417F406A
S1131DD64040407F020C027F7F0408107F3E414151
S1131DE6413E7F090909063E4151215E7F091929B1
S1131DF646264949493201017F01013F4040403F9F
S1131E061F2040201F3F4038403F631408146307D7
S1131E16087008076151494543007F4141000204A7
S1131E260810200041417F000402010204404040A2
S1131E364040000102040020545454787F4844442E
S1131E46383844444420384444487F385454541859
S1131E56087E0901020C5252523E7F08040478009F
S1131E66047D00002040443D007F102844000041CA
S1131E767F40007C0418047C7C08040478384444BD
S1131E8644387C14141408081414187C7C080404BC
S1131E96084854545420043F4440203C4040207C8D
S1131EA61C2040201C3C4030403C44281028440C54
S1131EB65050503C4464544C4400083641000000E1
S1131EC677000000413608000804081008F4010AE7
S1131ED63D3D3D3D3D3D3D3D3D3D202020534F4351
S1131EE63330353020496F542020203D3D3D3D3D63
S1131EF63D3D3D3D3D0A000A53656C6563742061B2
S1131F066E206F7074696F6E2062792074797069BF
S1131F166E672074686520636F6D6D616E643A0A3E
S1131F2600312E206C69676874302F31202D2054BF
S1131F3675726E204C69676874204F46462F4F4E63
S1131F460A00322E2066616E302F31202D20547502
S1131F56726E2046616E204F46462F4F4E0A00335E
S1131F662E20736572766F307E736572766F3138A4
S1131F7630202D2053657420536572766F20416E90
S1131F86676C650A00342E20737465707065725B25
S1131F962D5820746F20585D202D204D6F766520B6
S1131FA6537465707065720A00352E206463307E42
S1131FB66463323535202D20536574204443204D07
S1131FC66F746F722053706565640A00362E204A5A
S1131FD66F79737469636B20636F6E74726F6C0AC6
S1131FE600372E20556C747261736F6E69632063BB
S1131FF66F6E74726F6C0A00382E2053746172749B
S11320062067616D65202854797065202765786995
S11320167427206F722027717569742720746F20C6
S113202672657475726E20746F206D656E75290AFB
S113203600456E74657220796F75722063686F69E6
S113204663653A20000A3D3D3D3D3D3D3D3D3D3DF8
S11320563D3D3D3D3D3D3D3D3D3D3D3D3D3D3D3DA6
S11320663D3D3D3D3D3D3D3D3D3D3D0A004C6967A1
S11320766874733A204F4E20004C69676874733A4B
S1132086204F4646007475726E6564206F6E007448
S113209675726E6564206F66660046616E3A204FFF
S11320A64E20006C69676874004C69676874202563
S11320B6730A0066616E0046616E2025730A00731A
S11320C67465707065720053746570706572206D06
S11320D66F746F72206D6F76656420256420737447
S11320E66570730A006463004443204D6F746F7215
S11320F62073706565642073657420746F2025648D
S11321060A00496E76616C696420444320737065E5
S113211665642E20456E74657220276463272066E5
S11321266F6C6C6F77656420627920737065656483
S113213620302D3235352E0A00736572766F0053C2
S11321466572766F20616E676C65207365742074A2
S11321566F20256420646567726565730A00496E9D
S113216676616C696420736572766F20616E676C44
S1132176652E20506C65617365207479706520271F
S1132186736572766F2720666F6C6C6F7765642053
S1132196627920616E676C6520302D3138302E0AE5
S11321A600380050726564696374696F6E206761F4
S11321B66D65206D6F64652061637469766174650D
S11321C6642E20456E7465722061206E756D62659D
S11321D6723A0A003900417665726167696E672052
S11321E6616C676F726974686D2073656C6563747E
S11321F665642E0A003130004C696E656172207286
S1132206656772657373696F6E20616C676F726957
S113221674686D2073656C65637465642E0A004981
S11322266E76616C696420636F6D6D616E642E20D9
S1132236506C656173652074727920616761696E9B
S11322462E0A0065786974007175697400507265A8
S11322566469637465643A2025640A004578697480
S113226665642067616D65206D6F64652E0A003DA7
S11322763D3D3D3D20536D61727420526F6F6D205C
S11322863D3D3D3D0020202041546D65676131325E
S1132296382053797374656D2020004C696768741F
S11322A6733A204F46462046616E3A204F46460012
S11322B6446F6F723A20436C6F73656400783D2DEA
S11322C62D2C20793D2D2D2C2073773D2D00746502
S11322D66D70657261747572653A20256400783D87
S11322E625642C20793D25642C2073773D256400D4
S10F22F6446973743A20257520636D0060
S9030000FC
